:100000000C9488000C9456020C94A5000C94A50046
:100010000C94A5000C94A5000C94A5000C94A500CC
:100020000C94A5000C94A5000C94A5000C94A500BC
:100030000C94A5000C94A5000C94A5000C94A500AC
:100040000C94A5000C94A5000C94A5000C94A5009C
:100050000C94A5000C94A5000C94A5000C94A5008C
:100060000C94A5000C94A500040309041C0377005C
:10007000770077002E006600690073006300680057
:100080006C002E00640065000E0355005300420012
:1000900061007300700012011001FF000008C0161B
:1000A000DC05030101020001120110010200000839
:1000B000C016DCFF0100000000010902120001016E
:1000C0000080320904000000000000000902430023
:1000D000020100803209040000010202010005242F
:1000E0000010010424020205240600010524010376
:1000F00001070583030800C809040100020A000083
:100100000007050102080000070581020800000041
:1001100011241FBECFEFD4E0DEBFCDBF11E0A0E0C1
:10012000B1E0E2ECF5E102C005900D92AE30B1070E
:10013000D9F713E0AEE0B1E001C01D92A030B107E5
:10014000E1F70E949D070C94DF0A0C940000E9E699
:10015000F0E0808182608083E89A8BE480933801AC
:10016000809363018AE5809337018093620108954B
:100170001F93DC01162F8091620184FF18C08091CB
:10018000630198E8892780936301912FE4E6F1E009
:100190008D91819391501916DCF384E691E0612FE3
:1001A0000E9452021C5F109362011F9108958AE51C
:1001B00080936201EACF1F93DC01162F80913701F3
:1001C00084FF18C08091380198E88927809338010E
:1001D000912FE9E3F1E08D91819391501916DCF3B1
:1001E00089E391E0612F0E9452021C5F1093370156
:1001F0001F9108958AE580933701EACF1F93CF932B
:10020000DF9360914801635067FD1AC080914501FA
:10021000CCE0D0E0C81BD109C45BDE4F8091440123
:10022000803108F46AC08D3209F46BC080910E01F0
:1002300087FD97C080914801181614F41092480168
:100240008091000184FF4BC0609101016F3F09F470
:1002500046C0693070F168506093010180912C01B3
:1002600098E8892780932C0168E080910E0187FD32
:1002700089C0209146013091470186FF69C0ADE2F7
:10028000B1E080E090E0F901E80FF91FE491ED930F
:1002900001966817C1F76150862F90E06F5F019655
:1002A000820F931F9093470180934601162F1C5F86
:1002B0000BC01092010180912C0198E8892780934E
:1002C0002C01662391F614E08DE291E00E94520227
:1002D0001C3019F08FEF809301011093000194E11D
:1002E00089B18C7031F49150D9F710924901109274
:1002F0004301DF91CF911F910895CE010E943F07E6
:1003000099CF683009F096CF83EC80932C018AE571
:100310008093000110920E018881807609F056C00A
:100320009A811092350189818823C9F5109236018E
:1003300022E085E391E090934701809346018F810D
:100340008823F1F49E819217D8F49093010172CF23
:10035000962FD901EDE2F1E08D9181939150E1F773
:100360009ACFCE010E94C3088F3F31F0882309F451
:1003700061CF109201015ECF8EE1809300015ACFD0
:10038000922FE3CF8DE291E00E942209682F8930FD
:1003900008F45CC08FEF809301011EE19ECF853091
:1003A00021F1863051F18830F1F1893009F448C0EB
:1003B0008A3009F441C08B3029F48BE480933801F2
:1003C0008093630120E085E391E0B5CFCE010E94E8
:1003D000B00A282F2F3F09F0B2CF888187FD0BC0CC
:1003E0009FEF80E880930E01B0CF9093490120E009
:1003F00085E391E0A0CF9E81F4CF8B818130B9F06D
:100400008230A9F0833029F020E080E480930E014F
:10041000E1CF9923F1F488E690E09093470180932F
:10042000460124E0F2CF21E08BE491E084CFCE01BD
:100430000E94B006282FE9CF21E085E391E07BCF31
:1004400090934B0120E085E391E075CF182F1C5F5E
:100450003BCF913051F09230B9F688E890E090931C
:100460004701809346012EE0D0CF8CE690E0909338
:100470004701809346012CE1C8CFA82FB92F80E017
:1004800090E041E050EA60956F5F58F42D9138EFAD
:1004900082279795879510F0842795273F5FC8F3AB
:1004A000F3CF0895EADF8D939D930895CF93CFB74F
:1004B000CF93DF93C3954B9BE9F74B9B0BC04B9BB3
:1004C00009C04B9B07C04B9B05C04B9B03C04B9B7C
:1004D00001C08EC06F93C0914501DD27C45BDE4F24
:1004E0002F9365E54B9B03C02F916F91E6CF0F9340
:1004F0001F934F9320E040E15F9309B10C7003FB21
:1005000027F93F9350E03BE039C01C7040642F77DF
:10051000012F53501EC0406819B11C702F775350E3
:100520001FC0406409B12F770C70D1F15350000007
:1005300023C0406219B12F771C7091F15350000015
:1005400025C00C701027515012F45D5F000011504F
:1005500027952C3F19B1C8F61C700127015027952B
:100560002C3FC8F64227499309B10C7010274F73EE
:10057000115027952C3FA8F64695469519B11C7049
:1005800079F00127015027952C3F98F66B5A60F3BC
:10059000315009B1B0F600C011E01CBB00271CC0EF
:1005A0003B503195C31BD04011E01CBB0881033C7C
:1005B00021F10B3411F1209143011981110F121314
:1005C000EDCF4A81441F093669F10D3211F0013E29
:1005D00029F74F7009F0042F00934A013F915F9172
:1005E0004F911F910F912F916F91CCB3C0FD62CFAE
:1005F000DF91CF91CFBFCF91189520914A0122234F
:1006000069F3109148011123E9F53430EAF1309390
:10061000480120934401109145013BE0311B309388
:10062000450132C000914801013064F50AE54F7080
:1006300049F43091000134FD28C000930001CCE260
:10064000D1E027C0433049F03091370134FD1DC05F
:1006500000933701C8E3D1E01CC03091620134FD42
:1006600014C000936201C3E6D1E013C0052710E077
:1006700000C000000BB91AC0052710E0221F1DC0E2
:1006800010E021C04AE502C032ED432FC4E1D0E0C2
:1006900032E01AB11C605B9A0BB11AB95CE020E839
:1006A00065E320FF05270BB9279517951C3FF0F64A
:1006B0006695B8F7B1F720FF05270BB92795179571
:1006C0001C3FD0F62795179517FF052700001C3F04
:1006D0000BB9B0F629913A9519F7037F10914901AA
:1006E000110FC651D0400BB911F01093430111E026
:1006F0001CBB08601AB1137F402F437F54E05A950A
:10070000F1F70BB91AB94BB969CF809171018CBD62
:1007100080916E018DBD0895282F8823A1F0883027
:1007200008F03FC085E294E09093700180936F01E0
:10073000243001F12530A0F0263081F1263050F12F
:100740002730E1F0089586E494E09093700180935F
:100750006F0182E58093710181E080936E010895BD
:100760002230A1F0233070F4213061F780EC8093C7
:100770007201089588E180937201089583E0809367
:100780007201089580E380937201089580E680935A
:10079000720108958CE08093720108952093720194
:1007A000089586E494E09093700180936F01109215
:1007B0006E01293041F02A3050F4283051F683E59B
:1007C00080937101089582E58093710108952B3023
:1007D00031F02C3009F0BDCF81E080936E0181E5CE
:1007E00080937101089526B59091720186B5821BA0
:1007F0008917E0F3089584B18C6284B92A982D9802
:1008000096B52091720186B5891B8217E0F32A9A6A
:1008100096B586B5891B8217E0F32A9880916F01FF
:10082000909170018654944009F00895809171016F
:100830008CBD80916E018DBD089584B1837D84B996
:1008400085B1837D85B91CBC0895582F2091720114
:1008500040E030E057FD16C02B98440F1C994F5FC5
:100860002D9A96B586B5891B8217E0F32D9896B51B
:1008700086B5891B8217E0F33F5F383029F0550FAA
:1008800057FFEACF2B9AE9CF842F08958EBD0DB480
:1008900007FEFDCF8EB508950F931F930FE1E091F2
:1008A0006F01F09170018CEA0995E0916F01F09170
:1008B000700183E50995E0916F01F091700180E08E
:1008C0000995182FE0916F01F091700180E0099572
:1008D000133539F11CBC2D9A96B52091720186B55D
:1008E000891B8217E0F32D9896B586B5891B821770
:1008F000E0F3E0916F01F091700184E0E634F807D5
:1009000021F0002351F00150CECF809171018CBDB8
:1009100080916E018DBD0023B1F781E01F910F9191
:10092000089580E01F910F910895EF92FF920F9329
:100930001F937B018C01862F8170880F880F880F91
:10094000E0916F01F091700180620995D801C701B3
:1009500029E0B695A795979587952A95D1F7E091C7
:100960006F01F0917001099516950795F794E7943A
:10097000E0916F01F09170018E2D0995E0916F016A
:10098000F091700180E009951F910F91FF90EF9019
:1009900008950F931F938C01E0916F01F091700106
:1009A00080EA0995E0916F01F0917001812F09951E
:1009B000E0916F01F0917001802F0995E0916F0136
:1009C000F091700180E009951F910F910895FF92B9
:1009D0000F931F938C01F62EE0916F01F09170013F
:1009E00080EC0995E0916F01F0917001812F0995DC
:1009F000E0916F01F0917001802F0995E0916F01F6
:100A0000F09170018F2D09958EE10E94C20580E062
:100A10001F910F91FF900895CF92DF92EF92FF9276
:100A20000F931F936B017C01142FE0916F01F091E4
:100A300070018CE40995D701C60149E0B695A795E8
:100A4000979587954A95D1F7E0916F01F0917001E4
:100A50000995D701C601B695A79597958795E09119
:100A60006F01F09170010995E0916F01F0917001B3
:100A700080E009951F3FF9F016B50EE1C701B601F8
:100A80000E9495048F3F79F486B5811B8D33B0F3B6
:100A900016B5015099F781E01F910F91FF90EF90EB
:100AA000DF90CF90089580E01F910F91FF90EF901D
:100AB000DF90CF9008958FE00E94C20580E01F91E3
:100AC0000F91FF90EF90DF90CF900895CF92DF923B
:100AD000EF92FF920F931F936B017C01042F122F53
:100AE000862F8170880F880F880FE0916F01F09139
:100AF000700180640995D701C60169E0B695A79594
:100B0000979587956A95D1F7E0916F01F091700103
:100B10000995D701C601B695A79597958795E09158
:100B20006F01F09170010995E0916F01F0917001F2
:100B3000802F09951123C9F00F37F9F016B50EE192
:100B4000C701B6010E9495048F3779F486B5811BE1
:100B50008D33B0F316B5015099F781E01F910F91D5
:100B6000FF90EF90DF90CF90089580E01F910F915C
:100B7000FF90EF90DF90CF9008958FE00E94C20524
:100B800080E0F4CF382F882349F020E096B586B571
:100B9000891B8C33E0F32F5F2317C0F30895BF92B6
:100BA000CF92DF92EF92FF920F931F936B017C0124
:100BB000B42E122F969587957795679560587B4749
:100BC000814E9F4FA70196010E94BD0A21503040DF
:100BD000404050408091C00082608093C0001092DD
:100BE000C10081E0B81611F14B2D4295407F802F56
:100BF00090E00597880F991F1695110F110F110F8F
:100C0000182B412B4093C2002093C4003093C500A1
:100C100088E18093C10087B98FEF88B91F910F9148
:100C2000FF90EF90DF90CF90BF90089540E3DFCF2B
:100C30000F931F933091FD029091FE02292F231BE9
:100C40008091C00085FF16C0391709F46DC0359B2F
:100C500011C0E92FF0E0E450FE4F80818093C60080
:100C60009F5F8091480187FD22C02F5F8091C00067
:100C700085FDEACF9093FE029091FC02E091FB018A
:100C8000EF5F3E2F3F77E1508091C00087FF14C097
:100C9000391709F445C08091C0002091C6008C71BD
:100CA00099F7F0E0ED58FE4F2083E32FE9CF29308C
:100CB000E0F210924801C2CFE093FB01809137012E
:100CC00084FF25C06091FB01961789F1162F191B2F
:100CD0001F77193008F018E0012F090F07FD2DC00C
:100CE000892F90E08D589E4F612F0E94DB0000936A
:100CF000FC02112379F0449A183061F490E080915D
:100D0000FB01081391E081E098279093FF021F9167
:100D10000F91089590E09093FF021F910F91089515
:100D2000E093FB014498CACF3093FE02A5CF809197
:100D3000FF02882361F310E0CFCF0F7789F2A3E79A
:100D4000B1E00150202F30E00F5F2C583E4FFD01E5
:100D5000E058FF4F8D918083A217B307C1F7C0CF32
:100D6000FC0183818130A1F080910201813041F04A
:100D70008CEC90E0909347018093460183E40895C2
:100D80008AEB90E0909347018093460182E10895B9
:100D900080910201813041F088EA90E09093470110
:100DA0008093460182E1089586E990E0909347019F
:100DB0008093460182E10895FC012081822F807694
:100DC000803211F080E008959181892F8052823025
:100DD00048F0923249F027FDF5CF81E08093FF0281
:100DE00080E008958FEF089588B192819170990FF6
:100DF000990F990F877F982B98B9809114018823B8
:100E000051F782E080931401E6CFFC018091180134
:100E1000808380911901818380911A01828380915E
:100E20001B01838380911501848380911601858342
:100E300080911701868387E00895DC016623D1F055
:100E40002091FE02E091FD029E2F9F5F921741F0DC
:100E5000F0E0E450FE4F8D9180839093FD02E92FE6
:100E6000615091F721502E1B293018F48FEF809399
:100E7000480108952091FE02E091FD02F3CFDC01CC
:100E8000809102018130D9F06623D1F02091FE02D9
:100E9000E091FD029E2F9F5F921741F0F0E0E45039
:100EA000FE4F8D9180839093FD02E92F615091F761
:100EB00021502E1B293018F48FEF8093480108959C
:100EC0002091FE02E091FD02F3CF0F93FC0180819F
:100ED00080931801818180931901828180931A0186
:100EE000838180931B019481909315018581809368
:100EF0001601068100931701833010F0109216013D
:100F0000913011F41092150160911801709119013E
:100F100080911A0190911B014091160120911501B9
:100F20000E94CF051092FE021092FB011092FC026B
:100F30001092FD0281E00F9108950F9381E085B931
:100F400084B983B1817080930201813009F45FC05C
:100F50002EE088E190E00FB6F894A89580936000A9
:100F60000FBE2093600083EF8BB98CE08AB9A895FF
:100F700084EC99E020E931E0F9013197F1F701972C
:100F8000D9F71AB880E895E2A0E0B0E080931801A4
:100F900090931901A0931A01B0931B0110921501AF
:100FA0001092160188E08093170160E875E280E0F6
:100FB00090E040E020E008E00E94CF051092FE02A1
:100FC0001092FB011092FC021092FD020E94A700F9
:100FD000109214011092FF027894A8950E94FE00CE
:100FE0000E941806909114019923B9F3809162012F
:100FF00084FFF3CF9230D1F08BE091E062E00E9469
:10100000B80080911401815080931401E6CF15B887
:101010008FEF84B914B893E097B98EEF88B995BD76
:101020000E94A70078940E94FE00FDCF83E091E02B
:1010300068E00E94B800E5CFFF920F931F93CF9313
:10104000DF93F82E292F062F40910F01413051F0E8
:10105000443041F01FEF812FDF91CF911F910F910D
:10106000FF900895002309F48CC08F2D922F9C01CE
:10107000E90110E055C08091280190912901892B48
:1010800009F05BC0609124017091250180912601D7
:1010900090912701488121E00E946605809110010E
:1010A0009091110101979093110180931001892B68
:1010B000E1F410920F0180912A0181FF3CC08091E0
:1010C0002B0190E02091280130912901821793078C
:1010D00091F16091240170912501809126019091F8
:1010E000270148810E940C0511E080912401909114
:1010F0002501A0912601B09127010196A11DB11DE6
:101100008093240190932501A0932601B093270199
:1011100021969E012F19201708F09DCF40910F01B5
:10112000413009F4A8CF8091240190912501688174
:101130000E94E704B3CF11E0D8CF609124017091F1
:1011400025018091260190912701488120E00E948D
:10115000660580912B01815080932B01882309F033
:101160009DCF60912401709125018091260190917D
:10117000270148810E940C058091280180932B0152
:101180008DCF10E068CF9C0180910201813021F069
:10119000C9010E9465070895C9010E941C080895AD
:1011A0000F931F93CF93DF93082F162F40910F01BA
:1011B000842F8250823038F01FEF812FDF91CF9142
:1011C0001F910F9108956623A9F1802F9C01E901D9
:1011D00021C080912401909125010E94C904888337
:1011E0008091240190912501A0912601B0912701C1
:1011F0000196A11DB11D8093240190932501A09318
:101200002601B093270121969E01201B211780F40F
:1012100040910F014230E9F660912401709125015F
:1012200080912601909127010E9495048883D8CF50
:10123000183018F610920F01812FDF91CF911F9176
:101240000F910895FC01809102018130B9F08091E5
:101250001801808380911901818380911A01828312
:1012600080911B01838380911501848380911601F5
:10127000858380911701868387E00895CF010E94BE
:10128000D00808950F931F93CF93DF938C01DC0157
:1012900011968C918130F1F0823009F4BAC083301C
:1012A00041F1843009F489C0873009F45AC085308F
:1012B00009F42FC1863009F4E5C0883009F4B0C0C4
:1012C000893009F42EC18A3009F43FC180E0CCE1B5
:1012D000D1E03AC0329B41C0809112010E948C0340
:1012E0001092130141980E94FB0380E0CCE1D1E011
:1012F0002BC0E0916F01F0917001D80112968C9192
:101300000995CCE1D1E080931C01E0916F01F0914F
:101310007001D80113968C91099580931D01E0917D
:101320006F01F0917001D80114968C91099580930A
:101330001E01E0916F01F0917001D80115968C911A
:10134000099580931F0184E0D0934701C093460123
:10135000DF91CF911F910F91089585E00E948C033A
:10136000BFCF80911301882399F4F801938180E025
:10137000228130E0822B932BAA2797FDA095BA2FCC
:101380008093240190932501A0932601B093270117
:10139000D80117969C91179780E016962C9130E013
:1013A000822B932B909311018093100183E0809303
:1013B0000F018FEFCCE1D1E0C7CF809113018823DB
:1013C00099F4F801938180E0228130E0822B932B05
:1013D000AA2797FDA095BA2F809324019093250109
:1013E000A0932601B0932701D80117969C911797D7
:1013F00080E016962C9130E0822B932B9093110174
:101400008093100182E080930F018FEFCCE1D1E057
:101410009BCF0E941D04419A80E0CCE1D1E094CFA3
:10142000809113018823B1F4D80113969C911397EE
:1014300080E012962C9130E0822B932BAA2797FD07
:10144000A095BA2F8093240190932501A0932601A3
:10145000B0932701109229011092280110922A01BD
:10146000F801978180E0268130E0822B932B9093C6
:1014700011018093100184E080930F018FEFCCE184
:10148000D1E062CF80911301882399F4F801938110
:1014900080E0228130E0822B932BAA2797FDA09534
:1014A000BA2F8093240190932501A0932601B09335
:1014B0002701D80114968C91149715969C91292F89
:1014C0002F7020932A01492F50E0407F50704295A1
:1014D0005295507F5427407F5427480F511D5093F9
:1014E00029014093280120FF02C040932B01F801FD
:1014F000978180E0268130E0822B932B909311011D
:101500008093100181E080930F018FEFCCE1D1E057
:101510001BCF0E944C04CCE1D1E080931C0181E000
:1015200013CF81E080931301F80182819381A4811C
:10153000B5818093240190932501A0932601B09357
:10154000270180E0CCE1D1E0FFCED80112968C914A
:1015500080931201CCE1D1E010921C0181E0F4CE25
:101560009C0180910201813021F0C9010E94DC06BA
:101570000895C9010E9442090895A1E21A2EAA1BEA
:10158000BB1BFD010DC0AA1FBB1FEE1FFF1FA21733
:10159000B307E407F50720F0A21BB30BE40BF50B30
:1015A000661F771F881F991F1A9469F760957095B9
:1015B000809590959B01AC01BD01CF010895F894F1
:0215C000FFCF5B
:0E15C2005AFF01A120000000000200030000FB
:00000001FF
