:100000000C945D000C94D0010C947A000C947A004E
:100010000C947A000C947A000C947A000C947A0078
:100020000C947A000C947A000C947A000C947A0068
:100030000C947A000C947A000C947A000C947A0058
:100040000C947A000C947A000C947A000C947A0048
:100050000C947A000C947A000C947A000C947A0038
:100060000C947A000C947A00040309041C037700B2
:10007000770077002E006600690073006300680057
:100080006C002E00640065000E0355005300420012
:1000900061007300700012011001FF000008C0161B
:1000A000DC050301010200010902120001010080C8
:1000B0001909040000000000000011241FBECFEF4A
:1000C000D4E0DEBFCDBF11E0A0E0B1E0ECE4FFE0A2
:1000D00002C005900D92A230B107D9F711E0A2E05D
:1000E000B1E001C01D92A734B107E1F70E942E05CF
:1000F0000C94A4070C940000E9E6F0E08081836092
:100100008083E89A08951F93CF93DF93609128012D
:10011000635067FD13C080912501CCE0D0E0C81B7F
:10012000D109C45DDE4F809124018D3209F463C092
:100130008091020187FD85C0109228018091000105
:1001400084FF4BC0609101016F3F09F446C06930E4
:1001500070F16850609301018091180198E8892737
:100160008093180168E08091020187FD8EC0209184
:1001700026013091270186FF6FC0A9E1B1E080E040
:1001800090E0F901E80FF91FE491ED9301966817EB
:10019000C1F76150862F90E06F5F0196820F931F29
:1001A0009093270180932601162F1C5F0BC010929D
:1001B00001018091180198E889278093180166232E
:1001C00091F614E089E191E00E94CC011C3019F015
:1001D0008FEF809301011093000194E189B18C703D
:1001E00031F49150D9F71092290110922301DF9137
:1001F000CF911F910895683009F09ECF83EC8093D2
:1002000018018AE5809300011092020188818076AE
:1002100061F59A81109221018981882309F046C0F5
:100220001092220122E081E291E0909327018093D5
:1002300026018F81882319F49E81921718F1922F3D
:1002400021C0CE010E943D058F3F61F1882309F452
:1002500073CF1092010170CF962FD901E9E1F1E03F
:100260008D9181939150E1F794CFCE010E94360693
:10027000282F8F3FF1F6888187FD26C09FEF80E809
:10028000809302019093010157CF89E191E00E9490
:10029000E405682F893008F453C08FEF8093010183
:1002A0001EE199CF8EE18093000146CF853071F039
:1002B000863091F0883031F1893061F18A3031F146
:1002C00020E081E291E0B1CF9E81D9CF90932901C6
:1002D00020E081E291E0A9CF8B81813049F1823029
:1002E000F9F0833029F020E080E480930201A1CF6F
:1002F000992349F588E690E09093270180932601A1
:1003000024E0F2CF21E08BE291E08FCF21E081E287
:1003100091E08BCF90932B0120E081E291E085CF9B
:1003200088EA90E0909327018093260122E1DCCFB8
:1003300086E990E0909327018093260122E1D4CFB3
:10034000182F1C5F3FCF913051F0923061F688E852
:1003500090E090932701809326012EE0C5CF8CE694
:1003600090E090932701809326012CE1BDCFA82F28
:10037000B92F80E090E041E050EA60956F5F58F45B
:100380002D9138EF82279795879510F08427952730
:100390003F5FC8F3F3CF0895EADF8D939D930895EF
:1003A000CF93CFB7CF93DF93C3954B9BE9F74B9B8D
:1003B0000BC04B9B09C04B9B07C04B9B05C04B9B85
:1003C00003C04B9B01C089C06F93C0912501DD27FD
:1003D000C45DDE4F2F9365E54B9B03C02F916F915A
:1003E000E6CF0F931F934F9320E040E15F9309B155
:1003F0000C7003FB27F93F9350E03BE039C01C70C1
:1004000040642F77012F53501EC0406819B11C70F3
:100410002F7753501FC0406409B12F770C70D1F172
:100420005350000023C0406219B12F771C7091F126
:100430005350000025C00C701027515012F45D5F1E
:100440000000115027952C3F19B1C8F61C700127E8
:10045000015027952C3FC8F64227499309B10C70EB
:1004600010274F73115027952C3FA8F646954695B7
:1004700019B11C7079F00127015027952C3F98F68F
:100480006B5A60F3315009B1B0F600C011E01CBBEB
:10049000002717C03B503195C31BD04011E01CBB57
:1004A0000881033CF9F00B34E9F020912301198114
:1004B000110F1213EDCF093651F10D3211F0013E3B
:1004C00039F700932A013F915F914F911F910F914E
:1004D0002F916F91CCB3C0FD67CFDF91CF91CFBF8C
:1004E000CF91189520912A01222369F310912801B8
:1004F000112339F534303AF1309328012093240147
:10050000109125013BE0311B309325011CC0009167
:1005100028010130B4F40AE53091000134FD14C023
:1005200000930001C8E1D1E013C0052710E000C02E
:1005300000000BB91AC0052710E0221F1DC010E0F3
:1005400021C04AE502C032ED432FC4E1D0E032E0E1
:100550001AB11C605B9A0BB11AB95CE020E865E344
:1005600020FF05270BB9279517951C3FF0F66695D8
:10057000B8F7B1F720FF05270BB9279517951C3F52
:10058000D0F62795179517FF052700001C3F0BB9DC
:10059000B0F629913A9519F7037F10912901110FAF
:1005A000C651D0400BB911F01093230111E01CBBD0
:1005B00008601AB1137F402F437F54E05A95F1F73A
:1005C0000BB91AB94BB97FCF809145018CBD809191
:1005D00042018DBD0895282F8823A1F0883008F0AE
:1005E0003FC084E893E0909344018093430124301A
:1005F00001F12530A0F0263081F1263050F127306E
:10060000E1F0089585EA93E09093440180934301DB
:1006100082E58093450181E0809342010895223074
:10062000A1F0233070F4213061F780EC8093460113
:10063000089588E180934601089583E08093460100
:10064000089580E380934601089580E680934601F3
:1006500008958CE080934601089520934601089503
:1006600085EA93E090934401809343011092420104
:10067000293041F02A3050F4283051F683E5809338
:100680004501089582E58093450108952B3031F0AE
:100690002C3009F0BDCF81E08093420181E5809349
:1006A0004501089526B59091460186B5821B8917AC
:1006B000E0F3089584B18C6284B92A982D9896B598
:1006C0002091460186B5891B8217E0F32A9A96B5D8
:1006D00086B5891B8217E0F32A9880914301909197
:1006E0004401855A934009F00895809145018CBDDD
:1006F000809142018DBD089584B1837D84B985B117
:10070000837D85B91CBC0895582F2091460140E097
:1007100030E057FD16C02B98440F1C994F5F2D9A5F
:1007200096B586B5891B8217E0F32D9896B586B5E8
:10073000891B8217E0F33F5F383029F0550F57FFD0
:10074000EACF2B9AE9CF842F08958EBD0DB407FE12
:10075000FDCF8EB508950F931F930FE1E0914301F4
:10076000F09144018CEA0995E0914301F091440134
:1007700083E50995E0914301F091440180E00995FA
:10078000182FE0914301F091440180E00995133561
:1007900039F11CBC2D9A96B52091460186B5891B6E
:1007A0008217E0F32D9896B586B5891B8217E0F382
:1007B000E0914301F091440183E0E53AF80721F02C
:1007C000002351F00150CECF809145018CBD809126
:1007D00042018DBD0023B1F781E01F910F91089573
:1007E00080E01F910F910895EF92FF920F931F9356
:1007F0007B018C01862F8170880F880F880FE09114
:100800004301F091440180620995D801C70129E0B4
:10081000B695A795979587952A95D1F7E0914301CD
:10082000F0914401099516950795F794E794E091A6
:100830004301F09144018E2D0995E0914301F0911F
:10084000440180E009951F910F91FF90EF9008956A
:100850000F931F938C01E0914301F091440180EAD2
:100860000995E0914301F0914401812F0995E091B0
:100870004301F0914401802F0995E0914301F091EB
:10088000440180E009951F910F910895FF920F9305
:100890001F938C01F62EE0914301F091440180EC0E
:1008A0000995E0914301F0914401812F0995E09170
:1008B0004301F0914401802F0995E0914301F091AB
:1008C00044018F2D09958EE10E94210580E01F9142
:1008D0000F91FF900895CF92DF92EF92FF920F93C6
:1008E0001F936B017C01142FE0914301F0914401AF
:1008F0008CE40995D701C60149E0B695A79597956F
:1009000087954A95D1F7E0914301F091440109950B
:10091000D701C601B695A79597958795E0914301B4
:10092000F09144010995E0914301F091440180E088
:1009300009951F3FF9F016B50EE1C701B6010E94F7
:10094000F4038F3F79F486B5811B8D33B0F316B570
:10095000015099F781E01F910F91FF90EF90DF9088
:10096000CF90089580E01F910F91FF90EF90DF905E
:10097000CF9008958FE00E94210580E01F910F9194
:10098000FF90EF90DF90CF900895CF92DF92EF929B
:10099000FF920F931F936B017C01042F122F862F60
:1009A0008170880F880F880FE0914301F091440116
:1009B00080640995D701C60169E0B695A79597951A
:1009C00087956A95D1F7E0914301F091440109952B
:1009D000D701C601B695A79597958795E0914301F4
:1009E000F09144010995E0914301F0914401802F79
:1009F00009951123C9F00F37F9F016B50EE1C701BB
:100A0000B6010E94F4038F3779F486B5811B8D33CC
:100A1000B0F316B5015099F781E01F910F91FF9047
:100A2000EF90DF90CF90089580E01F910F91FF909D
:100A3000EF90DF90CF9008958FE00E94210580E035
:100A4000F4CF382F882349F020E096B586B5891B6E
:100A50008C33E0F32F5F2317C0F3089515B88FEFA1
:100A600084B914B893E097B98EEF88B995BD0E9408
:100A70007C0078940E948300FDCFFF920F931F9318
:100A8000CF93DF93F82E292F062F40910301413099
:100A900051F0443041F01FEF812FDF91CF911F9132
:100AA0000F91FF900895002309F48CC08F2D922F91
:100AB0009C01E90110E055C080911401909115014D
:100AC000892B09F05BC06091100170911101809138
:100AD000120190911301488121E00E94C504809188
:100AE0000401909105010197909305018093040101
:100AF000892BE1F4109203018091160181FF3CC023
:100B00008091170190E02091140130911501821716
:100B1000930791F160911001709111018091120180
:100B20009091130148810E946B0411E080911001A3
:100B300090911101A0911201B09113010196A11D94
:100B4000B11D8093100190931101A0931201B093F5
:100B5000130121969E012F19201708F09DCF409177
:100B60000301413009F4A8CF809110019091110147
:100B700068810E944604B3CF11E0D8CF6091100184
:100B8000709111018091120190911301488120E030
:100B90000E94C5048091170181508093170188231A
:100BA00009F09DCF609110017091110180911201A7
:100BB0009091130148810E946B04809114018093ED
:100BC00017018DCF10E068CF0F931F93CF93DF9362
:100BD000082F162F40910301842F8250823038F065
:100BE0001FEF812FDF91CF911F910F910895662301
:100BF000A9F1802F9C01E90121C080911001909101
:100C000011010E94280488838091100190911101A4
:100C1000A0911201B09113010196A11DB11D809305
:100C2000100190931101A0931201B093130121962A
:100C30009E01201B211780F4409103014230E9F608
:100C40006091100170911101809112019091130136
:100C50000E94F4038883D8CF183018F6109203014D
:100C6000812FDF91CF911F910F9108950F931F93C3
:100C7000CF93DF938C01DC0111968C918130F1F0E0
:100C8000823009F4BAC0833041F1843009F489C05C
:100C9000873009F45AC0853009F42FC1863009F431
:100CA000E5C0883009F4B0C0893009F42EC18A301B
:100CB00009F43FC180E0C8E0D1E03AC0329B41C0B6
:100CC000809106010E94EB021092070141980E9458
:100CD0005A0380E0C8E0D1E02BC0E0914301F091DD
:100CE0004401D80112968C910995C8E0D1E0809317
:100CF0000801E0914301F0914401D80113968C91D1
:100D0000099580930901E0914301F0914401D801D4
:100D100014968C91099580930A01E0914301F0911A
:100D20004401D80115968C91099580930B0184E0BC
:100D3000D0932701C0932601DF91CF911F910F918E
:100D4000089585E00E94EB02BFCF809107018823C0
:100D500099F4F801938180E0228130E0822B932B7B
:100D6000AA2797FDA095BA2F8093100190931101A7
:100D7000A0931201B0931301D80117969C91179775
:100D800080E016962C9130E0822B932B90930501F6
:100D90008093040183E0809303018FEFC8E0D1E0EA
:100DA000C7CF80910701882399F4F801938180E0EF
:100DB000228130E0822B932BAA2797FDA095BA2F92
:100DC0008093100190931101A0931201B09313012D
:100DD000D80117969C91179780E016962C9130E0D9
:100DE000822B932B909305018093040182E08093E2
:100DF00003018FEFC8E0D1E09BCF0E947C03419AB2
:100E000080E0C8E0D1E094CF809107018823B1F45D
:100E1000D80113969C91139780E012962C9130E0A4
:100E2000822B932BAA2797FDA095BA2F80931001B0
:100E300090931101A0931201B09313011092150128
:100E40001092140110921601F801978180E026811A
:100E500030E0822B932B909305018093040184E072
:100E6000809303018FEFC8E0D1E062CF809107014A
:100E7000882399F4F801938180E0228130E0822B6D
:100E8000932BAA2797FDA095BA2F809310019093DA
:100E90001101A0931201B0931301D80114968C9103
:100EA000149715969C91292F2F7020931601492F86
:100EB00050E0407F507042955295507F5427407FBC
:100EC0005427480F511D509315014093140120FFE2
:100ED00002C040931701F801978180E0268130E03D
:100EE000822B932B909305018093040181E08093E2
:100EF00003018FEFC8E0D1E01BCF0E94AB03C8E035
:100F0000D1E08093080181E013CF81E08093070155
:100F1000F80182819381A481B5818093100190931F
:100F20001101A0931201B093130180E0C8E0D1E059
:100F3000FFCED80112968C9180930601C8E0D1E0D3
:0C0F40001092080181E0F4CEF894FFCF7D
:020F4C005AFF4A
:00000001FF
